{
  "contractName": "MedRecord",
  "abi": [
    {
      "inputs": [],
      "payable": false,
      "stateMutability": "nonpayable",
      "type": "constructor"
    },
    {
      "anonymous": false,
      "inputs": [
        {
          "indexed": false,
          "internalType": "uint256",
          "name": "fileId",
          "type": "uint256"
        },
        {
          "indexed": false,
          "internalType": "string",
          "name": "fileHash",
          "type": "string"
        },
        {
          "indexed": false,
          "internalType": "uint256",
          "name": "fileSize",
          "type": "uint256"
        },
        {
          "indexed": false,
          "internalType": "string",
          "name": "fileType",
          "type": "string"
        },
        {
          "indexed": false,
          "internalType": "string",
          "name": "fileName",
          "type": "string"
        },
        {
          "indexed": false,
          "internalType": "string",
          "name": "fileDescription",
          "type": "string"
        },
        {
          "indexed": false,
          "internalType": "uint256",
          "name": "uploadTime",
          "type": "uint256"
        },
        {
          "indexed": false,
          "internalType": "address payable",
          "name": "uploader",
          "type": "address"
        },
        {
          "indexed": true,
          "internalType": "address payable",
          "name": "querier",
          "type": "address"
        }
      ],
      "name": "FileQueried",
      "type": "event"
    },
    {
      "anonymous": false,
      "inputs": [
        {
          "indexed": false,
          "internalType": "uint256",
          "name": "fileId",
          "type": "uint256"
        },
        {
          "indexed": false,
          "internalType": "string",
          "name": "fileHash",
          "type": "string"
        },
        {
          "indexed": false,
          "internalType": "uint256",
          "name": "fileSize",
          "type": "uint256"
        },
        {
          "indexed": false,
          "internalType": "string",
          "name": "fileType",
          "type": "string"
        },
        {
          "indexed": false,
          "internalType": "string",
          "name": "fileName",
          "type": "string"
        },
        {
          "indexed": false,
          "internalType": "string",
          "name": "fileDescription",
          "type": "string"
        },
        {
          "indexed": false,
          "internalType": "string",
          "name": "fileToken",
          "type": "string"
        },
        {
          "indexed": false,
          "internalType": "uint256",
          "name": "uploadTime",
          "type": "uint256"
        },
        {
          "indexed": false,
          "internalType": "address payable",
          "name": "uploader",
          "type": "address"
        }
      ],
      "name": "FileUploaded",
      "type": "event"
    },
    {
      "constant": true,
      "inputs": [],
      "name": "fileCount",
      "outputs": [
        {
          "internalType": "uint256",
          "name": "",
          "type": "uint256"
        }
      ],
      "payable": false,
      "stateMutability": "view",
      "type": "function"
    },
    {
      "constant": true,
      "inputs": [
        {
          "internalType": "uint256",
          "name": "",
          "type": "uint256"
        }
      ],
      "name": "files",
      "outputs": [
        {
          "internalType": "uint256",
          "name": "fileId",
          "type": "uint256"
        },
        {
          "internalType": "string",
          "name": "fileHash",
          "type": "string"
        },
        {
          "internalType": "uint256",
          "name": "fileSize",
          "type": "uint256"
        },
        {
          "internalType": "string",
          "name": "fileType",
          "type": "string"
        },
        {
          "internalType": "string",
          "name": "fileName",
          "type": "string"
        },
        {
          "internalType": "string",
          "name": "fileDescription",
          "type": "string"
        },
        {
          "internalType": "string",
          "name": "fileToken",
          "type": "string"
        },
        {
          "internalType": "uint256",
          "name": "uploadTime",
          "type": "uint256"
        },
        {
          "internalType": "address payable",
          "name": "uploader",
          "type": "address"
        }
      ],
      "payable": false,
      "stateMutability": "view",
      "type": "function"
    },
    {
      "constant": true,
      "inputs": [],
      "name": "name",
      "outputs": [
        {
          "internalType": "string",
          "name": "",
          "type": "string"
        }
      ],
      "payable": false,
      "stateMutability": "view",
      "type": "function"
    },
    {
      "constant": true,
      "inputs": [],
      "name": "queryPrice",
      "outputs": [
        {
          "internalType": "uint256",
          "name": "",
          "type": "uint256"
        }
      ],
      "payable": false,
      "stateMutability": "view",
      "type": "function"
    },
    {
      "constant": false,
      "inputs": [
        {
          "internalType": "string",
          "name": "_fileHash",
          "type": "string"
        },
        {
          "internalType": "uint256",
          "name": "_fileSize",
          "type": "uint256"
        },
        {
          "internalType": "string",
          "name": "_fileType",
          "type": "string"
        },
        {
          "internalType": "string",
          "name": "_fileName",
          "type": "string"
        },
        {
          "internalType": "string",
          "name": "_fileDescription",
          "type": "string"
        },
        {
          "internalType": "string",
          "name": "_fileToken",
          "type": "string"
        }
      ],
      "name": "uploadFile",
      "outputs": [],
      "payable": false,
      "stateMutability": "nonpayable",
      "type": "function"
    },
    {
      "constant": false,
      "inputs": [
        {
          "internalType": "uint256",
          "name": "_fileId",
          "type": "uint256"
        },
        {
          "internalType": "string",
          "name": "_fileToken",
          "type": "string"
        }
      ],
      "name": "getFile",
      "outputs": [],
      "payable": true,
      "stateMutability": "payable",
      "type": "function"
    }
  ],
  "bytecode": "0x60806040526040518060400160405280600981526020017f4d65645265636f72640000000000000000000000000000000000000000000000815250600090805190602001906200005192919062000077565b506000600155670de0b6b3a76400006002553480156200007057600080fd5b5062000126565b828054600181600116156101000203166002900490600052602060002090601f016020900481019282601f10620000ba57805160ff1916838001178555620000eb565b82800160010185558215620000eb579182015b82811115620000ea578251825591602001919060010190620000cd565b5b509050620000fa9190620000fe565b5090565b6200012391905b808211156200011f57600081600090555060010162000105565b5090565b90565b6119f880620001366000396000f3fe6080604052600436106100555760003560e01c806306fdde031461005a57806343953519146100ea5780635a04348714610115578063b0667cf814610443578063d8ca80731461046e578063f4c714b414610533575b600080fd5b34801561006657600080fd5b5061006f6107df565b6040518080602001828103825283818151815260200191508051906020019080838360005b838110156100af578082015181840152602081019050610094565b50505050905090810190601f1680156100dc5780820380516001836020036101000a031916815260200191505b509250505060405180910390f35b3480156100f657600080fd5b506100ff61087d565b6040518082815260200191505060405180910390f35b34801561012157600080fd5b50610441600480360360c081101561013857600080fd5b810190808035906020019064010000000081111561015557600080fd5b82018360208201111561016757600080fd5b8035906020019184600183028401116401000000008311171561018957600080fd5b91908080601f016020809104026020016040519081016040528093929190818152602001838380828437600081840152601f19601f82011690508083019250505050505050919291929080359060200190929190803590602001906401000000008111156101f657600080fd5b82018360208201111561020857600080fd5b8035906020019184600183028401116401000000008311171561022a57600080fd5b91908080601f016020809104026020016040519081016040528093929190818152602001838380828437600081840152601f19601f8201169050808301925050505050505091929192908035906020019064010000000081111561028d57600080fd5b82018360208201111561029f57600080fd5b803590602001918460018302840111640100000000831117156102c157600080fd5b91908080601f016020809104026020016040519081016040528093929190818152602001838380828437600081840152601f19601f8201169050808301925050505050505091929192908035906020019064010000000081111561032457600080fd5b82018360208201111561033657600080fd5b8035906020019184600183028401116401000000008311171561035857600080fd5b91908080601f016020809104026020016040519081016040528093929190818152602001838380828437600081840152601f19601f820116905080830192505050505050509192919290803590602001906401000000008111156103bb57600080fd5b8201836020820111156103cd57600080fd5b803590602001918460018302840111640100000000831117156103ef57600080fd5b91908080601f016020809104026020016040519081016040528093929190818152602001838380828437600081840152601f19601f820116905080830192505050505050509192919290505050610883565b005b34801561044f57600080fd5b50610458610d2f565b6040518082815260200191505060405180910390f35b6105316004803603604081101561048457600080fd5b8101908080359060200190929190803590602001906401000000008111156104ab57600080fd5b8201836020820111156104bd57600080fd5b803590602001918460018302840111640100000000831117156104df57600080fd5b91908080601f016020809104026020016040519081016040528093929190818152602001838380828437600081840152601f19601f820116905080830192505050505050509192919290505050610d35565b005b34801561053f57600080fd5b5061056c6004803603602081101561055657600080fd5b8101908080359060200190929190505050611556565b604051808a815260200180602001898152602001806020018060200180602001806020018881526020018773ffffffffffffffffffffffffffffffffffffffff1673ffffffffffffffffffffffffffffffffffffffff16815260200186810386528e818151815260200191508051906020019080838360005b838110156106005780820151818401526020810190506105e5565b50505050905090810190601f16801561062d5780820380516001836020036101000a031916815260200191505b5086810385528c818151815260200191508051906020019080838360005b8381101561066657808201518184015260208101905061064b565b50505050905090810190601f1680156106935780820380516001836020036101000a031916815260200191505b5086810384528b818151815260200191508051906020019080838360005b838110156106cc5780820151818401526020810190506106b1565b50505050905090810190601f1680156106f95780820380516001836020036101000a031916815260200191505b5086810383528a818151815260200191508051906020019080838360005b83811015610732578082015181840152602081019050610717565b50505050905090810190601f16801561075f5780820380516001836020036101000a031916815260200191505b50868103825289818151815260200191508051906020019080838360005b8381101561079857808201518184015260208101905061077d565b50505050905090810190601f1680156107c55780820380516001836020036101000a031916815260200191505b509e50505050505050505050505050505060405180910390f35b60008054600181600116156101000203166002900480601f0160208091040260200160405190810160405280929190818152602001828054600181600116156101000203166002900480156108755780601f1061084a57610100808354040283529160200191610875565b820191906000526020600020905b81548152906001019060200180831161085857829003601f168201915b505050505081565b60015481565b600086511161089157600080fd5b600084511161089f57600080fd5b60008251116108ad57600080fd5b60008351116108bb57600080fd5b600073ffffffffffffffffffffffffffffffffffffffff163373ffffffffffffffffffffffffffffffffffffffff1614156108f557600080fd5b6000851161090257600080fd5b600081511161091057600080fd5b60016000815480929190600101919050555060405180610120016040528060015481526020018781526020018681526020018581526020018481526020018381526020018281526020014281526020013373ffffffffffffffffffffffffffffffffffffffff168152506003600060015481526020019081526020016000206000820151816000015560208201518160010190805190602001906109b59291906118bc565b506040820151816002015560608201518160030190805190602001906109dc9291906118bc565b5060808201518160040190805190602001906109f99291906118bc565b5060a0820151816005019080519060200190610a169291906118bc565b5060c0820151816006019080519060200190610a339291906118bc565b5060e082015181600701556101008201518160080160006101000a81548173ffffffffffffffffffffffffffffffffffffffff021916908373ffffffffffffffffffffffffffffffffffffffff1602179055509050507f31fe4b0ca89e6d76295e354a09566a159b99631bd6aa270b73d8995dba3aaf206001548787878787874233604051808a815260200180602001898152602001806020018060200180602001806020018881526020018773ffffffffffffffffffffffffffffffffffffffff1673ffffffffffffffffffffffffffffffffffffffff16815260200186810386528e818151815260200191508051906020019080838360005b83811015610b49578082015181840152602081019050610b2e565b50505050905090810190601f168015610b765780820380516001836020036101000a031916815260200191505b5086810385528c818151815260200191508051906020019080838360005b83811015610baf578082015181840152602081019050610b94565b50505050905090810190601f168015610bdc5780820380516001836020036101000a031916815260200191505b5086810384528b818151815260200191508051906020019080838360005b83811015610c15578082015181840152602081019050610bfa565b50505050905090810190601f168015610c425780820380516001836020036101000a031916815260200191505b5086810383528a818151815260200191508051906020019080838360005b83811015610c7b578082015181840152602081019050610c60565b50505050905090810190601f168015610ca85780820380516001836020036101000a031916815260200191505b50868103825289818151815260200191508051906020019080838360005b83811015610ce1578082015181840152602081019050610cc6565b50505050905090810190601f168015610d0e5780820380516001836020036101000a031916815260200191505b509e50505050505050505050505050505060405180910390a1505050505050565b60025481565b600254341015610dad576040517f08c379a000000000000000000000000000000000000000000000000000000000815260040180806020018281038252600f8152602001807f496e76616c6964205061796d656e74000000000000000000000000000000000081525060200191505060405180910390fd5b600082118015610dbf57506001548211155b610dc857600080fd5b610dd061193c565b600360008481526020019081526020016000206040518061012001604052908160008201548152602001600182018054600181600116156101000203166002900480601f016020809104026020016040519081016040528092919081815260200182805460018160011615610100020316600290048015610e925780601f10610e6757610100808354040283529160200191610e92565b820191906000526020600020905b815481529060010190602001808311610e7557829003601f168201915b5050505050815260200160028201548152602001600382018054600181600116156101000203166002900480601f016020809104026020016040519081016040528092919081815260200182805460018160011615610100020316600290048015610f3e5780601f10610f1357610100808354040283529160200191610f3e565b820191906000526020600020905b815481529060010190602001808311610f2157829003601f168201915b50505050508152602001600482018054600181600116156101000203166002900480601f016020809104026020016040519081016040528092919081815260200182805460018160011615610100020316600290048015610fe05780601f10610fb557610100808354040283529160200191610fe0565b820191906000526020600020905b815481529060010190602001808311610fc357829003601f168201915b50505050508152602001600582018054600181600116156101000203166002900480601f0160208091040260200160405190810160405280929190818152602001828054600181600116156101000203166002900480156110825780601f1061105757610100808354040283529160200191611082565b820191906000526020600020905b81548152906001019060200180831161106557829003601f168201915b50505050508152602001600682018054600181600116156101000203166002900480601f0160208091040260200160405190810160405280929190818152602001828054600181600116156101000203166002900480156111245780601f106110f957610100808354040283529160200191611124565b820191906000526020600020905b81548152906001019060200180831161110757829003601f168201915b50505050508152602001600782015481526020016008820160009054906101000a900473ffffffffffffffffffffffffffffffffffffffff1673ffffffffffffffffffffffffffffffffffffffff1673ffffffffffffffffffffffffffffffffffffffff16815250509050816040516020018082805190602001908083835b602083106111c657805182526020820191506020810190506020830392506111a3565b6001836020036101000a038019825116818451168082178552505050505050905001915050604051602081830303815290604052805190602001208160c001516040516020018082805190602001908083835b6020831061123c5780518252602082019150602081019050602083039250611219565b6001836020036101000a03801982511681845116808217855250505050505090500191505060405160208183030381529060405280519060200120146112ea576040517f08c379a000000000000000000000000000000000000000000000000000000000815260040180806020018281038252600f8152602001807f496e636f727265637420746f6b656e000000000000000000000000000000000081525060200191505060405180910390fd5b3373ffffffffffffffffffffffffffffffffffffffff167f826dcff7109ed9c2509f6ed0573546630cf6f150c48a569b9c3847e336cf42ca826000015183602001518460400151856060015186608001518760a001518860e0015189610100015160405180898152602001806020018881526020018060200180602001806020018781526020018673ffffffffffffffffffffffffffffffffffffffff1673ffffffffffffffffffffffffffffffffffffffff16815260200185810385528c818151815260200191508051906020019080838360005b838110156113db5780820151818401526020810190506113c0565b50505050905090810190601f1680156114085780820380516001836020036101000a031916815260200191505b5085810384528a818151815260200191508051906020019080838360005b83811015611441578082015181840152602081019050611426565b50505050905090810190601f16801561146e5780820380516001836020036101000a031916815260200191505b50858103835289818151815260200191508051906020019080838360005b838110156114a757808201518184015260208101905061148c565b50505050905090810190601f1680156114d45780820380516001836020036101000a031916815260200191505b50858103825288818151815260200191508051906020019080838360005b8381101561150d5780820151818401526020810190506114f2565b50505050905090810190601f16801561153a5780820380516001836020036101000a031916815260200191505b509c5050505050505050505050505060405180910390a2505050565b6003602052806000526040600020600091509050806000015490806001018054600181600116156101000203166002900480601f0160208091040260200160405190810160405280929190818152602001828054600181600116156101000203166002900480156116085780601f106115dd57610100808354040283529160200191611608565b820191906000526020600020905b8154815290600101906020018083116115eb57829003601f168201915b505050505090806002015490806003018054600181600116156101000203166002900480601f0160208091040260200160405190810160405280929190818152602001828054600181600116156101000203166002900480156116ac5780601f10611681576101008083540402835291602001916116ac565b820191906000526020600020905b81548152906001019060200180831161168f57829003601f168201915b505050505090806004018054600181600116156101000203166002900480601f01602080910402602001604051908101604052809291908181526020018280546001816001161561010002031660029004801561174a5780601f1061171f5761010080835404028352916020019161174a565b820191906000526020600020905b81548152906001019060200180831161172d57829003601f168201915b505050505090806005018054600181600116156101000203166002900480601f0160208091040260200160405190810160405280929190818152602001828054600181600116156101000203166002900480156117e85780601f106117bd576101008083540402835291602001916117e8565b820191906000526020600020905b8154815290600101906020018083116117cb57829003601f168201915b505050505090806006018054600181600116156101000203166002900480601f0160208091040260200160405190810160405280929190818152602001828054600181600116156101000203166002900480156118865780601f1061185b57610100808354040283529160200191611886565b820191906000526020600020905b81548152906001019060200180831161186957829003601f168201915b5050505050908060070154908060080160009054906101000a900473ffffffffffffffffffffffffffffffffffffffff16905089565b828054600181600116156101000203166002900490600052602060002090601f016020900481019282601f106118fd57805160ff191683800117855561192b565b8280016001018555821561192b579182015b8281111561192a57825182559160200191906001019061190f565b5b509050611938919061199e565b5090565b6040518061012001604052806000815260200160608152602001600081526020016060815260200160608152602001606081526020016060815260200160008152602001600073ffffffffffffffffffffffffffffffffffffffff1681525090565b6119c091905b808211156119bc5760008160009055506001016119a4565b5090565b9056fea265627a7a723158203b9b4cb8414aeb5ddb60c09ce4dc3acd2a6bc12a13ebd4ea4dc0a202d0e8339464736f6c63430005100032",
  "source": "pragma solidity ^0.5.0;\n\ncontract MedRecord {\n  string public name = 'MedRecord';\n  uint public fileCount = 0;\n  uint256 public queryPrice = 1 ether;\n  mapping(uint => File) public files;\n\n  struct File {\n    uint fileId;\n    string fileHash;\n    uint fileSize;\n    string fileType;\n    string fileName;\n    string fileDescription;\n    // string fileOrganizationName;\n    string fileToken;\n    uint uploadTime;\n    address payable uploader;\n  }\n\n  event FileUploaded(\n    uint fileId,\n    string fileHash,\n    uint fileSize,\n    string fileType,\n    string fileName, \n    string fileDescription,\n    // string fileOrganizationName,\n    string fileToken,\n    uint uploadTime,\n    address payable uploader\n  );\n\n  event FileQueried(\n    uint fileId,\n    string fileHash,\n    uint fileSize,\n    string fileType,\n    string fileName, \n    string fileDescription,\n    uint uploadTime,\n    address payable uploader,\n    address payable indexed querier\n  );\n\n  constructor() public {\n  }\n\n  function uploadFile(string memory _fileHash, uint _fileSize, string memory _fileType,\n                      string memory _fileName, string memory _fileDescription, string memory _fileToken) public {\n    // Make sure the file hash exists\n    require(bytes(_fileHash).length > 0);\n    // Make sure file type exists\n    require(bytes(_fileType).length > 0);\n    // Make sure file description exists\n    require(bytes(_fileDescription).length > 0);\n    // Make sure file fileName exists\n    require(bytes(_fileName).length > 0);\n    // Make sure uploader address exists\n    require(msg.sender!=address(0));\n    // Make sure file size is more than 0\n    require(_fileSize>0);\n    // Make sure the file token exists\n    require(bytes(_fileToken).length > 0);\n\n    // Increment file id\n    fileCount ++;\n\n    // Add File to the contract\n    files[fileCount] = File(fileCount, _fileHash, _fileSize, _fileType, _fileName, _fileDescription, _fileToken, now, msg.sender);\n    // Trigger an event\n    emit FileUploaded(fileCount, _fileHash, _fileSize, _fileType, _fileName, _fileDescription, _fileToken, now, msg.sender);\n  }\n\n  function getFile(uint _fileId, string memory _fileToken) public payable{\n    require(msg.value >= queryPrice, \"Invalid Payment\");\n\n    // Make sure the file exists\n    require(_fileId > 0 && _fileId <= fileCount);\n\n    File memory file = files[_fileId];\n\n    // check the token\n    require(keccak256(abi.encodePacked(file.fileToken)) == keccak256(abi.encodePacked(_fileToken)), \"Incorrect token\");\n\n\n    emit FileQueried(file.fileId, file.fileHash, file.fileSize, file.fileType, file.fileName, file.fileDescription, file.uploadTime, file.uploader, msg.sender);\n\n  }\n}",
  "sourcePath": "/Users/SJ/Work/PetProjectsSJ/experiments/ipfs-vault-main/src/contracts/MedRecord.sol",
  "compiler": {
    "name": "solc",
    "version": "0.5.16+commit.9c3226ce.Emscripten.clang"
  },
  "schemaVersion": "3.4.7",
  "updatedAt": "2022-04-22T08:33:40.320Z",
  "networkType": "ethereum",
  "devdoc": {
    "methods": {}
  },
  "userdoc": {
    "methods": {}
  }
}